:020000040800F2
:1000000020080020CD0100083B180008A7140008B4
:100010003918000835040008CB1B00080000000058
:100020000000000000000000000000005F1A00084F
:1000300037040008000000005D1A0008611A00087B
:10004000E7010008E7010008E7010008E7010008F0
:10005000E7010008E7010008E7010008E7010008E0
:10006000E7010008E7010008E7010008E7010008D0
:10007000E7010008E7010008E7010008E7010008C0
:10008000E7010008E7010008E7010008E7010008B0
:10009000E7010008E7010008E7010008E7010008A0
:1000A000E7010008B91A0008E7010008E7010008A5
:1000B000E7010008E7010008E7010008E701000880
:1000C000E7010008E7010008E7010008E701000870
:1000D000E7010008E7010008E7010008E701000860
:1000E000E7010008E7010008E7010008E701000850
:1000F000E7010008E7010008E7010008E701000840
:10010000E7010008E7010008E7010008E70100082F
:10011000E7010008E7010008E7010008E70100081F
:10012000E7010008E7010008E7010008E70100080F
:1001300000F002F800F03AF80AA090E8000C8244BF
:100140008344AAF10107DA4501D100F02FF8AFF29C
:10015000090EBAE80F0013F0010F18BFFB1A43F0A5
:1001600001031847E421000004220000103A24BFD4
:1001700078C878C1FAD8520724BF30C830C144BF0C
:1001800004680C607047000000230024002500264E
:10019000103A28BF78C1FBD8520728BF30C148BFEA
:1001A0000B6070471FB51FBD10B510BD00F058F8AB
:1001B0001146FFF7F7FF01F019FD00F076F803B4E0
:1001C000FFF7F2FF03BC00F07DF80000094880470C
:1001D00009480047FEE7FEE7FEE7FEE7FEE7FEE729
:1001E000FEE7FEE7FEE7FEE704480549054A064B41
:1001F00070470000B51A00083101000820020020F5
:100200002008002020040020200400204FF00002DD
:1002100000B5134694469646203922BFA0E80C50FC
:10022000A0E80C50B1F12001BFF4F7AF090728BFD7
:10023000A0E80C5048BF0CC05DF804EB890028BF53
:1002400040F8042B08BF704748BF20F8022B11F07C
:10025000804F18BF00F8012B7047704770477047F8
:10026000754600F02BF8AE4605006946534620F06F
:100270000700854618B020B5FFF7B6FFBDE820405F
:100280004FF000064FF000074FF000084FF0000B52
:1002900021F00701AC46ACE8C009ACE8C009ACE805
:1002A000C009ACE8C0098D46704710B50446AFF3ED
:1002B00000802046BDE81040FFF781BF004870472E
:1002C000BC01002001491820ABBEFEE72600020059
:1002D0007047000010B501F0C5FA024800F098FF21
:1002E000002010BD7400002010B5FFF7F3FF044696
:1002F00000F004F800F082F8204610BD30B50F4938
:100300000F480A780270102A01D910220270498819
:100310004180002141600A4604780A4D09E000BF8F
:1003200005EB0213521C19609980D98099601973EA
:10033000D2B2A242F4D30121417030BD521D000857
:1003400018000020BC00002001F084FCFCE7000045
:1003500070B5104B0146587870B169B10C685CB14A
:1003600000200D4A1D7805E002EB0016367B2EB109
:10037000401CC0B2A842F7D3FF2070BD02EB0012B0
:1003800014608C889480C988D1805968916001215B
:10039000117370BD18000020BC0000200CB548B1DE
:1003A0000090ADF804100020ADF806006846FFF795
:1003B000CFFF0CBDFF200CBD04484178002903D0BD
:1003C00041684288114441607047000018000020D5
:1003D00008494A7862B10978884209D2064901EB96
:1003E0000010017B21B100210173016008467047B4
:1003F0000120704718000020BC00002010B54FF409
:100400007A710848FFF7CAFF074C0A212070074895
:10041000FFF7C4FF60700A210548FFF7BFFFA07017
:1004200010BD0000B11C000810000020C91C00080D
:10043000F51C0008FEE7704770B5044600F010F99F
:100440000546601C02D004480078044400F008F916
:10045000401BA042FAD370BD000000202DE9F84FE8
:10046000DFF8C8910024A9F1040B23460F2709F1F6
:10047000040AABF1040ED1E00125A54006EA05020D
:10048000AA4276D1DFF8A8C14E68A6EB0C086645F3
:100490002BD00DDC032E34D005DC36B3012E19D061
:1004A000022E2FD11BE0112E16D0122E2AD119E0C8
:1004B000B8F5881F19D006DCB8F5803F15D0B8F51F
:1004C000801F1FD111E0B8F5001F0ED0B8F5041F32
:1004D00018D10AE0CB6815E0CB681B1D12E0CB6891
:1004E00008330FE0CB680C330CE08B682BB1012B89
:1004F0004FF0080303D0456104E0042302E00561E6
:1005000000E00023FF2A01D8064601E000F10406BE
:100510004FEA840501D9A5F12005D6F8008007FA35
:1005200005FC28EA0C0803FA05F548EA0508C6F8B0
:1005300000804D68ED0070D53E4DAE6946F0010675
:10054000AE61AD6924F0030605F0010500953A4D52
:1005500006EB050CDCF80850A607360F07FA06F87C
:1005600025EA0805DFF8D480404503D14FF00008A4
:1005700025E052E0DFF8C880404502D14FF0010885
:100580001DE0DFF8C080404502D14FF0020816E0C0
:10059000DFF8B480404502D14FF003080FE0DFF8E8
:1005A000AC80404502D14FF0040808E0DFF8A0809D
:1005B000404502D14FF0050801E04FF0060808FA67
:1005C00006F848EA0508CCF808804D68D9F80060BC
:1005D000ED024D4601D5164300E096432E604D686E
:1005E000DAF80060AD02554601D5164300E09643A7
:1005F0002E604D68DBF80060AD035D4601D5164303
:1006000000E096432E604D68DEF80060ED0375460D
:1006100001D5164300E096432E60641C0A68164616
:10062000E2407FF429AFBDE8F88F000008040140E4
:1006300000001110001002400000014000080140BD
:10064000000C01400010014000140140001801405E
:10065000001C01408068084000D001207047000065
:1006600001488068704700000000002070B5040059
:1006700025D094F83D00002520B984F83C50204650
:1006800000F004FA242084F83D002068016821F07D
:10069000010101602068016841F4004101602068A7
:1006A000016821F40041016000F04CFB4D4A616893
:1006B000914201D84C4900E04C49884201D20120C6
:1006C00070BD4B492368B0FBF1F15E6826F03F0630
:1006D0000E435E606368934206D94FF496735943A4
:1006E0004FF47A73B1FBF3F12368491C1E6A26F0BC
:1006F0003F06314319626168914210D84900401E9B
:10070000B0FBF1F2521CC2F30B02042A01D2042006
:1007100022E0B0FBF1F0401CC0F30B001CE0A2682B
:10072000F2B301EBC10303EB0116431EB3FBF6F377
:100730005B1C43F480431B0549D092B301EBC1021B
:1007400002EB0111401EB0FBF1F0401CC0F30B00A6
:1007500040F4804040F400402168CA694CF6FF73C1
:100760009A431043C861D4E9071001432068026826
:1007700022F0C00211430160D4E903010143206863
:10078000826848F2FF339A4311438160D4E905013E
:1007900008432168CA6822F0FF021043C86001E0E4
:1007A0000EE016E02068016841F001010160256457
:1007B000202084F83D00256384F83E50002070BD61
:1007C00001EB4106431EB3FBF6F35B1CB3E70120CC
:1007D000C2E701EB4101401EB0FBF1F0401CC0F349
:1007E0000B00B7E7A086010080841E0000093D00D1
:1007F00040420F002DE9FF4F81B089460446FFF7C4
:100800002FFF054694F83D004FF0000820287DD1C9
:100810001923012250492046009500F0D7FE0028F8
:1008200074D194F83C00012870D0012084F83C0079
:1008300020680168C90703D1016841F00101016026
:100840002068016821F400610160242084F83D00E3
:10085000002626644148E0624FF0011B20272068F3
:10086000016841F4807101600095002259462046DC
:10087000049B00F0ABFE50B120680068C00502D5B3
:100880004FF400702064032005B0BDE8F08F2168AC
:1008900009F0FE000861FFF7E3FE2168054648699C
:1008A0004969C0F34000C1F380214FF0A00A0FE076
:1008B000FFF7D6FE411B0498814200D808B984F89E
:1008C0003DA0216848694969C0F34000C1F3802117
:1008D00094F83D20A02A02D008B90029E8D084F875
:1008E0003D7020684169C943890716D4016841F405
:1008F000007101602068416980691923012216494D
:100900002046009500F062FEB8B900E021E084F8CE
:100910003D7084F83C600020B6E7016841F4007146
:10092000016021686FF480604861192301220A493F
:100930002046009500F04AFE08B10120A4E7039884
:1009400008F1010880458AD384F83D7084F83C6042
:10095000F3E7022098E70000020010000000FFFF0C
:100960002DE9F84F1F4690468A460446DDF8289048
:10097000FFF776FE054694F83D0020287FD1192325
:10098000012240492046009500F020FE002876D143
:1009900094F83C00012872D0012084F83C002068C3
:1009A0000168C90703D1016841F0010101602068B5
:1009B000016821F400610160212084F83D001020CD
:1009C00084F83E0000262664C4F824806785608D84
:1009D00020852D48E0622B464A465146204600F0CD
:1009E0007BFD90B9206841698069009036E02A4615
:1009F0004946204600F090FE50B1206C042804D1F6
:100A00002068016841F4007101600120BDE8F88FA1
:100A1000606A216800780861606A401C6062618DCC
:100A2000491E6185218D491E89B22185226853693D
:100A3000DB435B070BD451B100781061606A401C46
:100A40006062608D401E6085208D401E20852A4694
:100A50004946204600F08EFD0028CED1208D00288A
:100A6000C5D154F83D0B016841F4007101602020AC
:100A700004F81E09E67766770020C7E7FFE7022043
:100A8000C4E70000020010000000FFFF10B586B0B0
:100A90000021009101910291039100680F49884261
:100AA0001AD10F4CA06940F00800A061A069694606
:100AB00000F008000490C020009012200190032054
:100AC00003900848FFF7CAFCE06940F40010E061B9
:100AD000E06900F40010049006B010BD005400401E
:100AE00000100240000C0140024881680278114465
:100AF0008160704700000020074810B5016841F090
:100B000010010160032000F075F80F2000F006F8D6
:100B100000F024F8002010BD0020024070B50D4DFB
:100B200004464FF47A712878B1FBF0F00A4909685D
:100B3000B1FBF0F000F0CCFA48B9102C07D200223B
:100B40002146501E00F036F800206C6070BD012078
:100B500070BD0000000000200C0000200C4808B50B
:100B6000816941F001018161816901F00101009118
:100B7000C16941F08051C161C06900F080500090AE
:100B80000448416821F0E06141F00071416008BD16
:100B90000010024000000140002809DB00F01F02A5
:100BA000012191404009800000F1E020C0F80011CF
:100BB00070470000F0B40E4B1B680C46C3F30223D1
:100BC000C3F10705042D00D90425191D072901D2F9
:100BD000002300E0DB1E012606FA05F1491E214034
:100BE00099409E40761E16403143F0BC00F0EEBFA7
:100BF0000CED00E0064900F0070208684FF6FF031D
:100C0000184040EA0220034A104308607047000081
:100C10000CED00E00000FA052DE9F0470F46050055
:100C200061D0434E306800F00700B84209D2306806
:100C300020F0070038433060306800F00700B84209
:100C400051D128683B4C810712D5400703D5606815
:100C500040F4E06060602878000703D5606840F4E5
:100C6000605060606068A96820F0F0000843606030
:100C70002878C00728D06868012810D02168022889
:100C800010D0890700292EDA616821F003010143A1
:100C90006160FFF7E5FC804641F288390DE021688C
:100CA0008903EFE78901EDE7FFF7DAFCA0EB080124
:100CB000494502D90320BDE8F0876068696800F003
:100CC0000C00B0EB810FEFD1306800F00700B842A4
:100CD0000BD9306820F0070038433060306800F0EE
:100CE0000700B84201D00120E5E72878400705D584
:100CF0006068E96820F4E0600843606028780007D5
:100D000006D56068296920F4605040EAC10060603F
:100D100000F028F86168084AC1F30311515CC8402B
:100D20000649086006480068FFF7F8FE0020C2E7A1
:100D300000200240001002403A1D00080C00002074
:100D4000040000200448054900684968044AC1F3CA
:100D50000221515CC84070470C0000200010024086
:100D60004A1D00080E4A51680E4801F00C03042B7E
:100D700011D0082B0FD10C48C1F38343C903C05CC9
:100D80000AD55168084AC1F34041921E515C054A98
:100D90005043B0FBF1F070470449484370470000EE
:100DA0000010024000127A002A1D000800093D00D0
:100DB0002DE9F84F040070D02078C04DC00749D00D
:100DC0006868C0F38100012807D06868C0F381001B
:100DD000022809D16868C00306D52868800339D580
:100DE00060680028E7D035E06068B0F5803F0BD040
:100DF00010B1B0F5A02F11D0286820F48030286001
:100E0000286820F4802002E0286840F480302860C0
:100E1000606890B1FFF724FC06460AE0286840F4B9
:100E200080202860F0E700BFFFF71AFC801B6428D1
:100E300073D828688003F7D50CE0FFF711FC06464D
:100E400005E000BFFFF70CFC801B6428F0D8286881
:100E50008003F7D420789A4E80074FF001094FF0B5
:100E6000000839D5686810F00C0F07D06868C0F327
:100E70008100022809D16868C00306D42868800769
:100E800014D52069012808D110E02069B0B1C6F856
:100E90000090FFF7E5FB074605E00AE1FFF7E0FBFE
:100EA000C01B0228C4D828688007F7D52868616964
:100EB00020F0F80040EAC10028600DE0C6F800808C
:100EC000FFF7CEFB074604E0FFF7CAFBC01B022872
:100ED00023D828688007F7D4207800072CD57948D4
:100EE000A169D9B1C0F80090FFF7BAFB074604E04A
:100EF000FFF7B6FBC01B02280FD8686A8007F7D53A
:100F000071484FF4FA510068B0FBF1F0009000BF57
:100F10000098411E0091FAD20EE080E0C0F80080F7
:100F2000FFF79EFB074604E0FFF79AFBC01B022871
:100F300075D8686A8007F7D42078400760D5E869DB
:100F40000027C00008D4E86940F08050E861E869F3
:100F5000012700F0805000905C480168C90513D457
:100F60000168834641F480710160FFF779FB824696
:100F700006E000BFFFF774FBA0EB0A0064284ED820
:100F8000DBF80000C005F5D5E06801280AD008B1FB
:100F9000052813D0286A20F001002862286A20F072
:100FA000040002E0286A40F001002862E06841F293
:100FB000883B98B1FFF754FB82460BE0286A40F06B
:100FC00004002862EEE700BFFFF74AFBA0EB0A012E
:100FD00059455AD8286A8007F6D50CE0FFF740FB40
:100FE000824605E0FFF73CFBA0EB0A0159454CD8CF
:100FF000286A8007F6D41FB1E86920F08050E861C4
:10100000E06988B36968C1F38101022944D00228EC
:10101000C6F8608004D0FFF723FB044638E034E0D4
:10102000FFF71EFB074604E0FFF71AFBC01B022870
:101030002BD828688001F7D4206AB0F5803F05D10D
:101040006868A16820F4003008436860D4E90801AA
:101050000843696821F4741108436860C6F8609019
:10106000FFF7FEFA044606E025E000BFFFF7F8FAB6
:10107000001B022809D828688001F7D51BE000BFB3
:10108000FFF7EEFA001B022802D90320BDE8F88F13
:1010900028688001F4D40EE00128F7D06868226A3D
:1010A00000F48031914204D1616A00F470108842EA
:1010B00001D00120EAE70020E8E70000001002402C
:1010C00000004242800442420C00002000700040B8
:1010D00010B5401EB0F1807F01D3012010BD4FF04C
:1010E000E02460610F21601700F070FD0020A06116
:1010F00007202061002010BD7047704770B590F840
:101100003C20012A2CD0012480F83C40022280F8A7
:101110003D2003685A689D6822F070060A683243D1
:101120005A60104B02689A420ED00F4B9A420BD075
:10113000B2F1804F08D00D4B9A4205D00C4B9A4229
:1011400002D00C4B9A4204D1496825F08003194320
:10115000916080F83D40002180F83C10084670BD49
:10116000022070BD002C014000340140000400400A
:1011700000080040000C004010B5040003D094F8B3
:101180003D0010B107E0012010BD002084F83C00B4
:10119000204600F01FF8022084F83D00211D206841
:1011A00000F090FC012084F8460084F83E0084F8AA
:1011B0003F0084F8400084F8410084F8420084F83D
:1011C000430084F8440084F8450084F83D00002082
:1011D00010BD000008B500680B49884212D10B48C9
:1011E000816941F4006181618069002200F400603E
:1011F000009011461920FFF7DDFCBDE808401920DA
:10120000FFF7CABC08BD0000002C014000100240DE
:1012100090F83D10012901D001207047022180F88B
:101220003D100168CA6842F00102CA6000680E49B8
:1012300088420ED00D4988420BD0B0F1804F08D0C3
:101240000B49884205D00B49884202D00A4988429E
:1012500004D1816801F00701062903D0016841F03B
:101260000101016000207047002C01400034014062
:101270000004004000080040000C004070B5044627
:1012800090F83C000025012817D0012684F83C6026
:10129000022084F83D002068826822F0770222F460
:1012A0007F4282600868502838D00DDC20284FD05B
:1012B00005DC90B3102811D14AE0022070BD30281F
:1012C00046D040280AD13BE060282FD070280DD0AE
:1012D000B0F5805F03D0B0F5005F12D0012584F82F
:1012E0003D60002084F83C00284670BDCB68D1E901
:1012F0000121206800F034FC2068816841F077010A
:1013000009E0CB68D1E90121206800F029FC2068C0
:10131000816841F480418160E1E719E0CA68496869
:10132000206800F02FFC5021206806E0CA68496858
:10133000206800F038FC6021206800F01BFCCEE73C
:10134000CA684968206800F01DFC40212068F4E765
:10135000226801461046F0E770472DE9F041044647
:101360000068C66805694FF00007A90713D5B107E3
:1013700011D5F91E0161012020772068806980075E
:10138000204602D0FFF7E8FF04E000F07EF8204698
:1013900000F07CF82777680716D5700714D5216808
:1013A0006FF004000861022020772068806910F443
:1013B000407F204602D0FFF7CFFF04E000F065F841
:1013C000204600F063F82777280715D5300713D596
:1013D00021686FF008000861042020772068C06948
:1013E0008007204602D0FFF7B7FF04E000F04DF879
:1013F000204600F04BF82777E80616D5F00614D5FE
:1014000021686FF010000861082020772068C0690B
:1014100010F4407F204602D0FFF79EFF04E000F06A
:1014200034F8204600F032F82777E80708D0F007B4
:1014300006D021686FF001000861204600F028F80E
:10144000280608D5300606D521686FF080000861AF
:101450002046FFF751FE680608D5700606D52168BC
:101460006FF040000861204600F01CF8A8060AD57D
:10147000B00608D521686FF0200008612046BDE85D
:10148000F041FFF73ABEBDE8F081704770470000B9
:1014900000680349884201D1FEF78EBF7047000003
:1014A000002C01407047FEE701684A69D2435205AB
:1014B0000FD46FF480624A61002140F8301F20226F
:1014C00042738173026942F00402026101730120D8
:1014D0007047002070470000F8B50446C06A1E46F9
:1014E0000D461746082807D0012805D010F5803F83
:1014F00002D0206B122804D12068016841F4807169
:101500000160134600224FF001112046009600F0C2
:101510005DF840B120680068C00502D54FF4007046
:1015200020640320F8BD2069B0F5804F0ED006205E
:10153000216800EAD51040F0F000086133463A46D1
:101540000B49204600F08AF878B902E005F0FE0069
:1015500000E0E8B221680861054933463A46891F30
:10156000204600F07BF80028DCD00120F8BD000008
:101570000800010070B516460D4604461EE02046E0
:10158000FFF792FF08B1012070BD681C16D0FFF76D
:1015900067F8801BA84200D885B920684069C0431D
:1015A00040070BD5002044F8300F20216173A07351
:1015B000216941F0200121612073E4E7206840693E
:1015C000C0434007DBD4002070BD00002DE9F04788
:1015D000984617460D460446C1F30746DDF82090AD
:1015E0002AE000BFB8F1FF3F26D0FFF739F8A0EBA3
:1015F0000901414502D8B8F1000F1DD12068012E24
:1016000016D0806925EA00000004000C12D00020EA
:10161000B84211D1002044F8300F20216173A0732B
:10162000216941F02001216120730120BDE8F0878C
:101630004069E7E70120EBE72068012E0AD08069C6
:1016400025EA00000004000C06D00020B842C9D0F2
:101650000020EBE74069F3E70120F7E72DE9F047C9
:10166000984616460D4604464FF000094FF0200AF2
:10167000C1F3074723E020684069C043400515D403
:101680002068016841F40071016021686FF4806096
:101690004861C4F8309084F83DA084F83E90216CF5
:1016A00041F00401216484F83C9021E0701C06D0D4
:1016B000FEF7D6FFA0EB0800B04203D816B1012F09
:1016C0001FD021E02068012F15D0806925EA000095
:1016D0000004000C18D000BF44F8309F84F80DA01F
:1016E00084F80E90216941F02001216184F80C906A
:1016F0000120BDE8F087406925EA00000004000CE5
:10170000EAD12068406901E02068806925EA00008C
:101710000004000CAFD1ECE770B516460D46044648
:101720001EE02046FFF7C0FE08B1012070BD681C16
:1017300016D0FEF795FF801BA84200D885B9206817
:101740004069C04300060BD5002044F8300F20212B
:101750006173A073216941F0200121612073E4E7E6
:1017600020684069C0430006DBD4002070BD000043
:1017700000B585B00020019003901248816941F0C6
:1017800020018161816901F020010491816941F0AA
:1017900004018161816901F004010491816941F0D2
:1017A000080181618069694600F0080004904FF4E7
:1017B000C0600090012002900348FEF74FFE05B084
:1017C00000BD0000001002400014014010B586B0BA
:1017D000002418480094019402940394049414493A
:1017E000059401600721C0E9011440F2E731C0E926
:1017F00003148021C0E90541FFF7BEFC08B172B6B1
:10180000FEE74FF48050009069460A48FFF736FD26
:1018100008B172B6FEE7049404A906480594FFF7E0
:101820006DFC002801D072B6FEE706B010BD0000C6
:10183000002C014074000020FEE7FEE770B5002494
:101840000021204600F06DF80025002000F0F4F89B
:101850006D1CEDB2802DF8D3641CE4B2082CEFD3DC
:1018600070BD000010B56420FEF7E6FD642302227F
:1018700078212748FEF7BEFF002848D1AE2000F0AF
:10188000C9F8D52000F0C6F8802000F0C3F8A820E1
:1018900000F0C0F83F2000F0BDF8D32000F0BAF807
:1018A000002000F0B7F8402000F0B4F8A12000F0CC
:1018B000B1F8C82000F0AEF8DA2000F0ABF8122042
:1018C00000F0A8F8812000F0A5F8CF2000F0A2F8E1
:1018D000D92000F09FF8F12000F09CF8DB2000F008
:1018E00099F8302000F096F8A42000F093F8A62094
:1018F00000F090F88D2000F08DF8142000F08AF8A8
:10190000AF2000F087F8BDE81040FFF797BF10BD8B
:10191000200000200246012000E05043491EFCD276
:10192000704710B50C4640F0B00000F073F810207E
:1019300040EA141000F06EF804F00F00BDE810400B
:1019400000F068B82DE9F0410746CE004000083E9F
:10195000801E15464FF0FF38F1B2C0B2FFF7E1FF2D
:101960001148002400EB05152819A0F5805090F8C7
:10197000000E00F061F8641CE4B2082CF4D308EB0C
:101980004700F1B2C0B2FFF7CCFF00242819A0F540
:10199000805090F8080E00F04FF8641CE4B2082C58
:1019A000F4D3BDE8F0810000561D00082DE9F04792
:1019B00000241D461646884681460A2713E0291B47
:1019C0000A20491EFFF7A6FFB6FBF0F0B0FBF7F1C7
:1019D00007FB110208EB0400C1B248463032FFF7A2
:1019E000B1FF641CE4B2AC42E9D3BDE8F0872DE955
:1019F000F04115460E460746002406E03019C1B2F4
:101A00003846FFF79FFF641CE4B22A5D002AF5D137
:101A1000BDE8F0811CB500218DF804108DF805009B
:101A20004FF47A700090022301AA78210148FEF752
:101A300097FF1CBD200000201CB540218DF804102C
:101A40008DF805004FF47A700090022301AA7821E6
:101A50000148FEF785FF1CBD20000020704770473D
:101A6000FFF742B810B590B028216846FEF7CEFBCC
:101A700014210AA8FEF7CAFB02200090012004905E
:101A800010200024059007946846FFF791F908B1EB
:101A900072B6FEE70F20CDE90A040C940D940021E4
:101AA0000AA80E94FFF7B8F8002801D072B6FEE736
:101AB00010B010BD704700000148FFF74EBC000099
:101AC00074000020F0B50268204C214D214E224FB9
:101AD000224B4FF0804CA04209D0984207D060457D
:101AE00005D0A84203D0B04201D0B84204D122F0C0
:101AF000700E4A6842EA0E02A04209D0984207D00E
:101B0000604505D0A84203D0B04201D0B84203D10D
:101B100022F44075CA682A434D6922F080022A43A4
:101B200002608A68C2620A688262A04201D098425A
:101B300001D109690163012141610169C90703D02C
:101B4000016921F001010161F0BD0000002C01409C
:101B50000004004000080040000C00400034014038
:101B600010B5846842EA032224F47F440A432243E6
:101B7000826010BD826822F070020A4342F00701C1
:101B80008160704710B5036A046A24F0010404629E
:101B9000846924F0F00444EA021423F00A020A43A0
:101BA0008461026210BD10B5036A046A24F0100457
:101BB0000462846923F0A00324F4704444EA0232EE
:101BC00043EA01118261016210BDFEE70907090EB7
:101BD000002804DB00F1E02080F80014704700F0DA
:101BE0000F0000F1E02080F8141D7047FEF784FF1D
:101BF000FFF738FFFFF7BCFD10480F494FF4804254
:101C000001600F49416000218160C0E90312416118
:101C10008161C1610162FEF729FD08B172B6FEE77C
:101C2000FFF7D4FDFEF760FB012106A20846FFF78F
:101C3000DEFEFEF789FBFEE7005400402000002096
:101C4000A086010068656C6C6F205320776F726C02
:101C5000640000002DE9F041134E7078002820D078
:101C600077680025DFF8448018E000BF08EB051412
:101C7000207B88B1A068A188381A81420CD8A7605F
:101C8000206800B18047E08830B1401E0004000C9D
:101C9000E08001D1207320606D1CEDB23078854268
:101CA000E4D3BDE8F081000018000020BC00002053
:101CB0000448082301214268521C42600220FFF7B9
:101CC00075BE00001000002010B54FF48061074879
:101CD000FEF7C0FC002807D1054C2078FF2803D070
:101CE000FEF776FBFF20207010BD000000140140BD
:101CF0001000002010B54FF400710848FEF7AAFC50
:101D0000002809D1064C2078FF2805D14FF47A71BC
:101D10000448FEF743FB207010BD00000014014092
:101D200010000020B11C0008010202030405060790
:101D300008090A0B0C0D0E0F101000000000000027
:101D40000000010203040607080900000000010268
:101D50000304080001000000000000000000000073
:101D6000000000000000000000F80000000000007B
:101D700000333000000000100C06100C06000000BC
:101D800000000000000040C07840C0784000043FE0
:101D900004043F040400007088FC083000000018B0
:101DA00020FF211E0000F008F000E01800000021D4
:101DB0001C031E211E0000F00888700000001E2178
:101DC00023241927211010160E0000000000000027
:101DD000000000000000000000E018040200000005
:101DE00000071820400000020418E0000000004036
:101DF000201807000000404080F0804040000202B0
:101E0000010F01020200000000F0000000000101CB
:101E1000011F01010100000000000000000080B06F
:101E20007000000000000000000000000000000141
:101E3000010101010101000000000000000000306C
:101E40003000000000000000000080601804006006
:101E500018060100000000E010080810E000000F64
:101E6000102020100F00001010F8000000000020CB
:101E7000203F202000000070080808887000003013
:101E800028242221300000300888884830000018BB
:101E9000202020110E000000C02010F800000007D4
:101EA0000424243F240000F808888808080000194A
:101EB000212020110E0000E0108888180000000F7B
:101EC000112020110E0000380808C8380800000052
:101ED000003F000000000070880808887000001CA7
:101EE000222121221C0000E010080810E000000060
:101EF000312222110F00000000C0C00000000000CD
:101F000000303000000000000080000000000000F1
:101F100080600000000000008040201008000001E8
:101F200002040810200040404040404040000404AB
:101F30000404040404000008102040800000002075
:101F4000100804020100007048080808F0000000B2
:101F5000003036010000C030C828E810E000071843
:101F6000272423140B000000C038E0000000203CB0
:101F700023020227382008F8888888700000203F54
:101F8000202020110E00C03008080808380007186B
:101F900020202010080008F808080810E000203F62
:101FA000202020100F0008F88888E8081000203F43
:101FB00020202320180008F88888E8081000203F17
:101FC000200003000000C03008080838000007188F
:101FD0002020221E020008F808000008F808203F10
:101FE000210101213F20000808F808080000002016
:101FF000203F2020000000000808F8080800C080EA
:1020000080807F00000008F888C028180800203F62
:1020100020012638200008F8080000000000203FBA
:1020200020202020300008F8F800F8F80800203FB1
:10203000003F003F200008F830C00008F808203FAB
:10204000200007183F00E01008080810E0000F10FB
:10205000202020100F0008F808080808F000203F92
:10206000210101010000E01008080810E0000F182D
:10207000242438504F0008F8888888887000203F52
:102080002000030C30200070880808083800003851
:10209000202121221C00180808F808081800000058
:1020A000203F2000000008F808000008F808001F82
:1020B000202020201F000878880000C83808000071
:1020C00007380E010000F80800F80008F800033C8B
:1020D0000700073C03000818688080681808203053
:1020E0002C03032C30200838C800C8380800000032
:1020F000203F2000000010080808C83808002038D9
:10210000262120201800000000FE0202020000002C
:10211000007F40404000000C30C000000000000084
:1021200000010638C00000020202FE00000000406C
:1021300040407F0000000000040202020400000092
:10214000000000000000000000000000000080808F
:102150008080808080800002020400000000000077
:102160000000000000000000808080800000001956
:10217000242222223F2008F8008080000000003F37
:10218000112020110E000000008080800000000E51
:10219000112020201100000000808088F800000E2F
:1021A000112020103F200000808080800000001F50
:1021B000222222221300008080F0888888180020C4
:1021C000203F202000000000808080808000006B85
:1021D00094949493600008F8008080800000203F71
:1021E000210000203F20008098980000000000207F
:1021F000203F20200000000000809898000000C0D0
:102200008080807F000008F8000080808000203FF0
:1022100024022D302000000808F8000000000020F3
:10222000203F202000008080808080808000203F30
:1022300020003F20003F8080008080800000203F01
:10224000210000203F200000808080800000001FCF
:10225000202020201F00808000808000000080FF60
:10226000A12020110E000000008080808000000E60
:10227000112020A0FF8080808000808080002020AE
:102280003F2120000100000080808080800000331A
:10229000242424241900008080E0808000000000B5
:1022A000001F202000008080000000808000001FB0
:1022B000202020103F20808080000080808000014E
:1022C0000E300806010080800080008080800F3082
:1022D0000C030C300F000080800080808000002004
:1022E000312E0E312000808080000080808080812F
:1022F0008E701806010000808080808080000021A0
:10230000302C2221300000000000807C02020000FE
:102310000000003F404000000000FF0000000000FF
:102320000000FF0000000002027C8000000000406E
:10233000403F00000000000601010202040400000A
:1023400000000000000000006823000800000020DA
:10235000200000006C0100088823000820000020F5
:1023600000080000880100080100000010000000C3
:102370000000000000127A00FFFFFF0000000000D4
:08238000000001000000000054
:0400000508000131BD
:00000001FF
